:020000022000DC
:1060000000000420B5620200DD620200DF620200CF
:10601000E1620200E3620200E562020000000000AB
:10602000000000000000000000000000E762020025
:10603000E962020000000000EB620200ED62020073
:106040000DAD0200EF62020079B60200EF620200BD
:10605000EF620200EF62020011B10200A5320300FC
:10606000EF620200EF620200EF620200EF620200E4
:10607000EF620200EF620200EF620200EF620200D4
:10608000EF620200AD730200EF620200EF620200F5
:106090004D740200EF620200C92C0300EF6202009F
:1060A000EF620200EF6202004D320300EF62020075
:1060B000EF620200EF62020000000000000000003A
:1060C000EF620200EF620200EF620200EF62020084
:1060D000EF620200EF620200EF620200EF62020074
:1060E000EF620200EF620200EF62020000000000B7
:1060F00000000000EF62020000000000EF620200FA
:10610000000000000000000000000000000000008F
:10611000000000000000000000000000000000007F
:10612000000000000000000000000000000000006F
:10613000000000000000000000000000000000005F
:10614000000000000000000000000000000000004F
:10615000000000000000000000000000000000003F
:10616000000000000000000000000000000000002F
:10617000000000000000000000000000000000001F
:10618000000000000000000000000000000000000F
:1061900000000000000000000000000000000000FF
:1061A00000000000000000000000000000000000EF
:1061B00000000000000000000000000000000000DF
:1061C00000000000000000000000000000000000CF
:1061D00000000000000000000000000000000000BF
:1061E00000000000000000000000000000000000AF
:1061F000000000000000000000000000000000009F
:1062000010B5054C237833B9044B13B10448AFF3F0
:1062100000800123237010BD4024002000000000F6
:106220005466030008B5034B1BB103490348AFF3A1
:10623000008008BD000000004424002054660300D4
:10624000154B002B08BF134B9D46A3F5803A002148
:106250008B460F461348144A121A0DF061FE0F4B7D
:10626000002B00D098470E4B002B00D09847002001
:10627000002104000D000D48002802D00C48AFF3A7
:1062800000800DF0EFFD2000290006F0E5FB0DF089
:10629000D5FD00BF00000800000004200000000041
:1062A00000000000402400205835002000000000BD
:1062B000000000000649074A074B9B1A03DD043B18
:1062C000C858D050FBDC04F05BFAFFF7B9FF0000C0
:1062D000CC6703001022002040240020FEE7FEE7E8
:1062E000FEE7FEE7FEE7FEE7FEE7FEE7FEE7FEE786
:1062F000F0B595B0002415460F4608461E4604F03A
:1063000025F9384623460895082205A91A9D0996BD
:106310000D950A948DF82C400C9404F071F99DF8B9
:1063200014308DF81140DDE9061003F00302012A54
:10633000CDE9020127D0022A04D0384604F00AF938
:1063400015B0F0BDBDF81650C3F3C2038DF8103080
:10635000AD090826082D2C4628BF082433462246BE
:106360000EA9384604F04CF92D1B214608AB02AAB1
:106370000EA8264400F0D0FD002DEBD1384604F0E5
:10638000E9F815B0F0BDBDF81460059DC6F383169D
:10639000C3F3C204B2000EA9384608238DF810409A
:1063A000C5F3952504F02CF908AB324628460EA912
:1063B000009302AB00F00AFD384604F0CBF815B0AC
:1063C000F0BD00BF704700BF00B583B0044B009321
:1063D000044A4023FFF78CFF03B05DF804FB00BFC5
:1063E000E96302006024002038B50E480E4D0378A2
:1063F0000E4CEB5C0025D2B2257053B90C3005F081
:10640000C1FB58B90A4B1B7813B12378002BFCD081
:1064100038BD043005F02EFE0028F3D000F07EFFDA
:10642000F0E700BF1022002038350020A024002013
:106430005C24002070B51348134A0378D35C88B0FD
:10644000DBB90C3005F020FB104D0FCD6C460FC4AE
:1064500095E80F0008AD062645F8206D84E80F008A
:1064600029460022074804F0E1FB08B100F056FF7E
:10647000074B00221A7008B070BD043005F07AFD99
:10648000E2E700BF102200203835002078420300E8
:106490005C240020F0B5324C85B004F5836002F036
:1064A000C3FE04F2144002F0BFFED4E9013703EA50
:1064B0000702D01C04EB800114F8200010F0040047
:1064C00044D003F1020C0E7806F00306012E654657
:1064D00035D0022E02F1030621D004EB86010028FC
:1064E000F1D104EB82020133D26801923B4004EB0C
:1064F000830302F00302012ADE6829D0022A23D195
:10650000BDF806309B090333360C05EB930515489F
:1065100002F096FE00B16560304605B0F0BD4B88D4
:106520000CEB931307EA0302D11C03F1020C14F8DD
:106530002100654604EB810100F00400CFE70B88E1
:10654000C3F383136344EDE70026E0E79D1CC8E72F
:10655000BDF80430C3F38313360C1D44D7E700BFE6
:10656000742500208829002021B9124B03EBC000BC
:1065700000687047104A0F49521AD20815D030B43B
:106580000E4D2B88834212D0002303E035F82340C0
:10659000844205D001339A42F8D1002030BC7047C4
:1065A00001EBC300006830BC7047104670470846D6
:1065B000F8E700BFEC660300B46703003C2400204A
:1065C000094B013903EBC00003290BD8DFE801F0C8
:1065D000020806040220704740797047007970472E
:1065E0000420704700207047EC6603002DE9F0435B
:1065F00083B002AB002203F8012DDFF8DC900746E0
:1066000018468846D9F8084001F0E0F9D9E9013286
:10661000D9F80060134401339B1B012B58D809F2B1
:106620001C450121284602F0DBFDFFF733FF014640
:10663000284602F0D5FDD9E90132D9F800101344FB
:1066400001335B1A012BECD90A40033205230231D6
:106650009DF8070049F82230C9F8001001F0DCF974
:1066600000211C4802F082FD80F31000731C2340BF
:1066700009EB830300043440033440EA1740D86038
:1066800019F8243067F3C50309F8243039F82430A9
:106690006FF3891329F8243059F8242068F39F22D6
:1066A0001346012161F301036FF3820349F82420AB
:1066B00009F8243099F820341BB906E000F00EF8F0
:1066C00018B1D9E900329A42F8D103B0BDE8F0839D
:1066D0003146B9E790290020742500202DE9F047C4
:1066E000934C002384B0C4F81834BFF34F8FD4E91F
:1066F000015605EA0602D31C04EB830114F823308B
:10670000580719D527680B7803F00303012B43D0F2
:10671000022B03D14B88023505EB931506EA0502DF
:10672000D4F81804D31C04EB830128B9AF4239D93B
:1067300014F823305B07E6D404EB82026B1CD268AA
:106740000192334004EB830302F00302DB680293FF
:10675000022A05F1020700F08D80012A26D0D4F824
:1067600010543DB12B6828469B689847EB681D681C
:10677000002DF7D16F48704B7049C01AC008000453
:1067800040F00200FFF732FFD4E90030C01A18BF12
:10679000012004B0BDE8F0870B880235C3F38313F2
:1067A0001D44BBE7676004B0BDE8F087BDF8042076
:1067B0006348C2F38313062B28BF062363F38912B1
:1067C00002339900ADF8042003F07EFE80460028D5
:1067D000C5D003F0BBFE0023082201A9404603F008
:1067E000DBFEBDF8043013F4707F00F09F806FF083
:1067F000010AAAEB050A082506EA070103312B4620
:10680000042204EB8101404603F0C6FEBDF80430CB
:1068100007F101090AEB0902C3F3831393424F46C0
:1068200005F10405E8D8D4F81834002B68D1D4F861
:10683000105465B1EB685A7928464146002A5BD06E
:106840002B681B689847EB681D68002DF2D1404605
:1068500003F080FE04A8002300F80D3D01F0B6F817
:10686000D4F818340BB9C4F804909DF8030001F073
:10687000D3F889E7BDF8063031484FEA93194D4601
:10688000502D28BF502565F38F1305F10801ADF891
:10689000063003F019FE804600283FF460AF26EA78
:1068A000070A0AF1010A03F051FE4FEA8A0A00239F
:1068B000082201A9404603F06FFE55452BD9EBB2E3
:1068C000BAF1000F20D006EA0701A3EB0A03033157
:1068D00004EB8101DDB252460823404603F05CFE22
:1068E0002A460AF108031749404603F055FE09F10C
:1068F000030907EB990996E71D68002D9AD1A6E7D1
:10690000404603F027FE3FE72A4608230D4940464C
:1069100003F042FEEBE706EA0701033104EB8101D5
:106920002A460823404603F037FEE0E7B9467AE7F7
:10693000742500202C670300EC660300B8420300B6
:10694000D8660300802500202DE9F04782B002AB15
:10695000002403F8014DDFF8ECA0074618469146E5
:106960008846DAF8084001F031F8DAE90132DAF85D
:106970000060134401339B1B022B5ED80AF21C45B6
:106980000121284602F02CFCFFF784FD0146284631
:1069900002F026FCDAE90132DAF800101344013380
:1069A0005B1A022BECD90A400332033145239DF8D0
:1069B00007004AF82230CAF8001001F02DF8B31C85
:1069C00023400AEB830300211D48C3F80C9002F01A
:1069D000CDFB80F31000731C23400AEB83030004FB
:1069E0003440033440EA1740D8601AF8243067F383
:1069F000C5030AF824303AF82430012161F38913E1
:106A00002AF824305AF8242068F39F22134661F3B1
:106A100001036FF382034AF824200AF824309AF81D
:106A200020341BB906E0FFF759FE18B1DAE900324D
:106A30009A42F8D102B0BDE8F0873146B3E700BF13
:106A400090290020742500202DE9F04F83B002AD7D
:106A5000002405F8014D3B4C8046284693469A4653
:106A60008946A56800F0B2FFD4E9013227681344D3
:106A70000133DB1B032B63D804F21C460121304693
:106A800002F0AEFBFFF706FD0146304602F0A8FB20
:106A9000D4E901322168134401335B1A032BEDD989
:106AA0000A400332852344F8223004319DF8070060
:106AB000216000F0B1FFBA1CFB1C2A402B4004EB04
:106AC000820204EB830300211F48C2F80CB0C3F814
:106AD0000CA002F04BFB80F310007B1C2B4004EB5E
:106AE000830300043D40033540EA1840D86014F8A1
:106AF000253068F3C50304F8253034F82530022228
:106B000062F3891324F8253054F8252069F39F2275
:106B10001346012161F301036FF3820344F825203A
:106B200004F8253094F820341BB906E0FFF7D6FDB1
:106B300018B1D4E900329A42F8D103B0BDE8F08F21
:106B40003946ADE774250020902900202DE9F04F4B
:106B500083B002AE002406F8014D3E4C804630461C
:106B600093469A46A568894600F030FFD4E9013281
:106B7000276813440133DB1B042B69D804F21C463D
:106B80000121304602F02CFBFFF784FC0146304621
:106B900002F026FBD4E901322168134401335B1A69
:106BA000042BEDD90A400332C52344F822300531C5
:106BB0009DF80700216000F02FFFB81CFA1C284048
:106BC0002A403B1D2B4004EB800004EB820204EBC7
:106BD0008303C0F80CB00021C2F80CA01E480C9A28
:106BE000DA6002F0C3FA80F310007B1C2B4004EB48
:106BF000830300043D40033540EA1840D86014F890
:106C0000253068F3C50304F8253034F82530032215
:106C100062F3891324F8253054F8252069F39F2264
:106C20001346012161F301036FF3820344F8252029
:106C300004F8253094F820341BB906E0FFF74EFD28
:106C400018B1D4E900329A42F8D103B0BDE8F08F10
:106C50003946A7E774250020902900202DE9F04F40
:106C600087B006AE002406F8114D454C109F0497DE
:106C7000CDE90223804699463046119B0593924602
:106C8000A5688B4600F0A2FED4E9013227681344C0
:106C90000133DB1B052B70D804F21C460121304662
:106CA00002F09EFAFFF7F6FB0146304602F098FA32
:106CB000D4E901322168134401335B1A052BEDD965
:106CC0000A40033240F2051344F8223006319DF8A1
:106CD00007002160FE1C00F09FFEB91C29402E40D9
:106CE0003A1D2A4004EB810104EB86067B1D2B40F4
:106CF00004EB8202C1F80CA004EB8303C6F80C90ED
:106D0000109ED6600021119A1E48DA6002F02EFA19
:106D100080F310007B1C2B4004EB830300043D40F8
:106D2000033540EA1840D86014F8253068F3C503ED
:106D300004F8253034F82530042262F3891324F84E
:106D4000253054F825206BF39F221346012161F36F
:106D500001036FF3820344F8252004F8253094F8EA
:106D600020341BB906E0FFF7B9FC18B1D4E90032B2
:106D70009A42F8D107B0BDE8F08F3946A0E700BFCE
:106D80007425002090290020044BD3E900239A4267
:106D900001D0FFF7A3BC0020704700BF742500207E
:106DA00038B5094BD3F81044012583F820544CB171
:106DB000E3685D71236820465B689847E3681C6858
:106DC000002CF5D138BD00BF742500202DE9F04717
:106DD00084B01D460C9C002394F80C802373EB8830
:106DE00081460E461746002B40D1297A05290ED040
:106DF0006B7AA88873BB404B53F821A00021FFF7A2
:106E0000B3FB524603463D49204602F075FA062F71
:106E100009D8DFE807F0046A4249525D3300494669
:106E2000204602F069FA2B7A052B05D06B7A5BB904
:106E30003349204602F060FA204602F051FA84F805
:106E40000C8004B0BDE8F0872E4A2F49204602F09E
:106E500053FAEDE7FFF7B4FB2C4B2B4953F82020F6
:106E6000204602F049FA297AA888C4E7254A009208
:106E70002749284A204602F03FFAB6E7D6E904102F
:106E8000D6E900230390D6E902070291CDE9000775
:106E90004946204602F030FAC5E74946D6E90023C4
:106EA000204602F029FABEE7B168D6E90023204661
:106EB0000091494602F020FAB5E7D6E90201D6E989
:106EC0000023019100904946204602F015FAAAE7F6
:106ED000D6E90371B068D6E900230291CDE9000735
:106EE0004946204602F008FA9DE7326849462046A6
:106EF00002F002FA97E700BF40430300304303006B
:106F00003C43030028430300F8580300D042030029
:106F10001043030008430300082900D970472DE9F6
:106F2000F04F1D46904600232A7B2B7385B0B8F89E
:106F30000630039207460E46002B7BD198F80810C6
:106F4000052911D098F80930B8F80400002B63D156
:106F50003C4B53F821400021FFF706FB2246034635
:106F60003949284602F0C8F9DFF8FCB0DFF8FC9098
:106F7000002405E03A5D013402F0BEF9082C09D086
:106F8000A64249462846F5D85946013402F0B4F9DC
:106F9000082CF5D12D49DFF8D8B0DFF8D890284675
:106FA00002F0AAF900240CE017F804A0BAF17E0F51
:106FB00023D92E2249462846013402F09DF9082C97
:106FC00008D0A642F0D859462846013402F094F978
:106FD000082CF6D198F80830052B02D098F8093023
:106FE000A3B91B49284602F087F9284602F078F930
:106FF000039B2B7305B0BDE8F08F0CF057FF504496
:107000005246437813F0970FD3D0D3E7114A124971
:10701000284602F071F9E4E7FFF7D2FA0F4B0E4968
:1070200053F82020284602F067F998F80810B8F8BD
:1070300004008DE7074A009209490A4A284602F0EF
:107040005BF97BE740430300304303000043030048
:107050003C43030028430300F8580300D0420300D8
:107060001043030008430300FC420300F442030002
:107070003843030004430300434B1978002900F010
:1070800081802DE9F04F002487B001258E4603E072
:107090000134E4B2744560D23C4B27B21E6816F846
:1070A00037C0ACF1200205FA02F9394ACCF12003CD
:1070B000D2E9000125FA03F349EA030905FA0CF8BD
:1070C00000EA080201EA0903134306EBC70BDFD00D
:1070D00021EA09032E4920EA08026046C1E900239B
:1070E00004F006F816F837C0ACF1200205FA02F2F7
:1070F00001920199CCF12003C6B225FA03F3ACF159
:107100002002194306FA02F30393224B0191D3E9BB
:107110000023CDE9042305FA0CF30093CCF1200100
:10712000039B26FA01F10B43039306FA0CF3029337
:10713000DDE90467DDE9002316401F4032463B4687
:10714000DDE90267BB4208BFB24209D00E4B0134F1
:1071500093F800E0E4B274459ED307B0BDE8F08F29
:107160009BF80110DBF80430A1F10101B1FA81F1C3
:107170004909091AB1FA81F14909002BE6D06046A4
:107180009847E3E7704700BF98290020D0290020E6
:10719000C8290020C02900202DE9F84F06462448C0
:1071A00000F0DAFBD8B9234F0123A6F1200103FA3E
:1071B00001FBC6F12002D7E9000123FA02F24BEAF3
:1071C000020B03FA06FA00EA0A0201EA0B03134370
:1071D00007D020EA0A0421EA0B05C7E90045BDE80B
:1071E000F88F304603F084FF134ED6E90089C8B10A
:1071F00048EA0A0349EA0B049846A146D7E9002366
:107200004BEA03050D4B0A4819684AEA02044B464B
:107210004246C6E90023C7E900450022BDE8F84F11
:1072200000F044BB28EA0A0829EA0B09E6E700BF98
:10723000A0290020C8290020C02900209C29002066
:10724000042A36D92DE9F04182B00E46054614468F
:1072500003F0D8FD002836D01D491E4A1E4B0D6094
:107260001E481F491C60167000230022741EC0E9CE
:107270000023C1E90023E4B2EEB105EBC404194FC9
:10728000083D4FF00008032601E0AC4213D0A3787C
:1072900020788DF806803A4601A98DF804608DF8B3
:1072A000053003F0B9FD083C0028EED002B0BDE87F
:1072B000F081072070470C4A0C48002100F0E4FAE6
:1072C00002B0BDE8F08103F053FD0028C4D0EDE723
:1072D000D0290020982900209C290020C0290020C6
:1072E000C82900209971020079700200AC430300A4
:1072F00070B5084D2B785BB1074E0024336801212F
:1073000013F8340003F078FE2B780134A342F5D84B
:10731000002070BD98290020D029002000B585B03C
:1073200000230390194601AA44F20100CDE901337C
:1073300000F004F805B05DF804FB00BF10B572B6AC
:10734000FFF72EFDFFF720FD0028FBD1104B114C5D
:107350001149E41AE408240444F00100FFF746F957
:107360000E4B1B68DB0700D500BE44F002000C4941
:10737000FFF73CF9BFF34F8F0A490B4BCA6802F481
:10738000E0621343CB60BFF34F8F00BFFDE700BF48
:10739000EC6603002C670300B0430300F0ED00E04F
:1073A000BC43030000ED00E00400FA05F8B5204AF4
:1073B000204B0024C2F84041C2F84441C2F8484181
:1073C000C2F84C41C2F80041C2F804411B6833B313
:1073D0001949D2F804550A68AD1A1A6825F07F4594
:1073E000AA4227460DD8197CDE69AD1A144419B19A
:1073F0001F74D3E9052090471EB133461A68AA428C
:10740000F1D90E490E4A0B7812789A4208D00D49EC
:107410000D4A41F823404FF48013C2F80031F8BD03
:10742000531CDBB2022B08BF00230B70EFE700BF39
:1074300000100140F42A0020F02A0020ED2A00204C
:10744000EC2A0020E42A002000E100E02DE9F04FC2
:107450008C4A8D4913780978DFF85082994285B0BB
:10746000D8F800A000F07B810133DBB2022B08BF0B
:10747000002386481370864A076852F823107B1849
:1074800023F07F4300240360534626462046A4464B
:10749000ABB11A688A4200F26581DC68C3F800C0AB
:1074A000891A1044DA6934B13D1825F07F45C3E9E3
:1074B0000154DE611E4613460124002BE9D1002C45
:1074C00040F07C8101230093724B734FDFF8E09111
:1074D00043F00103019355464FF0000B46B3D6E944
:1074E00001C13446F669694B6C481A68ACEB02037B
:1074F00023F07F43834248D80B44236000220121BC
:10750000C4E90122E2612174002D5DD02A689A420B
:107510004DD2284603E00A689A424FD20846C16914
:107520009B1A0029F7D12360E161C461002ED6D1F6
:1075300078783978884264D00B4603EB43034C1CBF
:10754000BA7807EBC303E1B28A421A79397004BFF3
:1075500000213970022A9C6844D0032A38D0012ABD
:10756000E8D1227C002AE5D1D3F80CC0C4F804C0CD
:107570001969A1605869E06099F800009B69A361EE
:107580000028B0D062609446ADE7A2EB0C0222F076
:107590007F428A4202D28B1A2360AFE70023012286
:1075A000C4E90033A360E36122746DB12A68C8F8AE
:1075B0000040D31A2B60E56125468FE7D21A0A6096
:1075C0002360E161C461B1E7C8F80040254685E762
:1075D000002DAFD000232B74ED69002DFBD1C8F82E
:1075E0000050A5E74DB1AC422B4603D1E4E09442F4
:1075F0002FD01346DA69002AF9D100232374884278
:107600009AD1BBF1000F01D1554553D0002D56D171
:10761000234E244A1F4C4FF480334FF4003101278E
:10762000C2F880103C43C6F848334FF43C60C6F8BB
:1076300008337760A047154BB7604FF43C601D607E
:10764000A047194B1D70002389F8003005B0BDE834
:10765000F08FA34200F09180E0692168D861002892
:1076600000F086802A4603680B440360AA424FF06C
:1076700000033978787823741CBF15464FF0010B4E
:10768000BDE700BFEC2A0020ED2A0020F02A0020F0
:10769000E42A0020D0430300D4290020FEFF7F000D
:1076A0000010014000E100E0E12A0020F42A00205F
:1076B000E02A0020009B002BC5D0002DA8D0434B12
:1076C000434A1C68D2F80465424FD5F800A03978C7
:1076D000331B23F07F43DD1CB9B93F493F4B4FF4C7
:1076E0008030C2F844034FF00108C2F804034FF49D
:1076F0000030C1F8800143F001030860C2F8008047
:107700004FF43C60984787F80080AA452CBF04EBF3
:107710000A0363192E4923F07F43C1F84035D1F89D
:107720000425921B9B1B22F07F4223F07F430332F0
:107730009A4288D9294BD1F80425C1F8402543F055
:1077400001034FF43C609847234B4FF40032C3F8D9
:107750000021002389F8003005B0BDE8F08F002635
:107760000096B1E674BB521A1A6001230093ABE68F
:10777000002339787878237441E71946EA69C8F814
:10778000002092B9CDE90231114BDFF840C0012051
:107790009860019B89F80000CCF800204FF43C6011
:1077A0009847DDE90231D8F80020C8690968D86136
:1077B00000287FF458AF59E72946DFE7C8F80030C2
:1077C0009A467FE6C8F800309A46CCE7F02A0020B7
:1077D00000100140E12A002000E100E0D043030056
:1077E0002DE9F8431F4D204E204FDFF898804FF4CD
:1077F00080334FF400324FF001090024C6F8802096
:1078000047EA0907C5F848334FF43C60C5F8083328
:10781000C5F80490B847C5F808904FF43C60C8F824
:107820000040B847124A134B13491C601470134BA5
:10783000134A0C700B2114701C8099704FF4801245
:10784000C023C6F8802186F814333260C5F8084595
:1078500086F81133D5F80435C8F800302046BDE865
:10786000F88300BF0010014000E100E0D0430300B6
:10787000E12A0020F42A0020EC2A0020D42900204C
:10788000ED2A0020F02A0020074B9B784BB132B143
:1078900028B10368187C20B959745A6170470720D1
:1078A00070470820704700BFD42900202DE9F04719
:1078B000264CA37882B0002B3CD000283AD0042973
:1078C0003CD94369002B35D0814602A899F8113084
:1078D0000026012B00F8016D0CBF8846B046174604
:1078E0008A4600F073F86378A17822789DF8070043
:1078F0005D1CEDB2A94208BF3546AA4222D003EB77
:10790000430304EBC3030121114AC3F80890197122
:10791000D2F804256570C3E9032AC3E9058700F09E
:107920007BF80C4B4FF480123046C3F8002102B0B4
:10793000BDE8F087082002B0BDE8F087072002B05C
:10794000BDE8F08700F068F80420F0E7D4290020B3
:107950000010014000E100E0F0B51A4CA37883B0BC
:1079600043B338B343692BB3064602A8002500F899
:10797000015D357400F02AF86278A77821789DF8C7
:107980000700531CDBB29F4208BF2B46994214D01C
:1079900002EB420204EBC202022196601171637095
:1079A00000F03AF8084B4FF480122846C3F8002143
:1079B00003B0F0BD082003B0F0BD00F02DF80420A6
:1079C000F9E700BFD429002000E100E070B4EFF334
:1079D000108472B60D4B9A68AAB90D490D4E012557
:1079E0009D60D1F8805035401D60C1F88060D1F8AD
:1079F00084505D604FF0FF33C1F88430027004B9E9
:107A000062B670BC704701230370F8E72C35002084
:107A100000E100E0FC06FFBD094B9A687AB170B93D
:107A200010B4EFF3108172B6064A1C6814605C68EB
:107A30005460986001B962B65DF8044B70477047B6
:107A40002C35002000E100E0F0B443681BB1384A57
:107A5000D468A34246D20023364F0B807A684FF099
:107A6000010C02F580544FF6FF76083294420ED88E
:107A7000BCF1020FA1F800C007F1140754D07A68D6
:107A800002F58054083294424FF0020CF0D913688A
:107A90000133EDD05388033302EB83039C42E7D3D9
:107AA0009588B5420AD0158845B1956803689D420E
:107AB00011D05388033302EB8302D7E79C42D7D916
:107AC0001A6801321A46D3D05D88033503EB85036B
:107AD0009C42E5D2CCE7184B42601B890381012010
:107AE000F0BC704712699342B5D813F00305B2D1C8
:107AF000114A048912899442ADD104689A6894426B
:107B0000A9D10C484268934203D902F580529342AE
:107B100007D38269934207D902F58052934203D278
:107B200001250D800120DBE70020F0BC704700BF7D
:107B300028240020382B00201C2B0020F0B5334CCB
:107B4000334DB4F802C062684FEA8C0606EB0C03B2
:107B500005EB830383B0596801F58050002A52D0A9
:107B60005388033302EB8302904213D8664405EB3B
:107B70008605EB68002B3DD0264B2748196802226A
:107B80009A80052500230122257003B0BDE8F0404E
:107B900002F0A4B813680133E8D05388033302EB32
:107BA00083038342E2D84FF6FF7E9788774514D04F
:107BB000178897B162605388164D1748AE882968B8
:107BC000033300259BB200959B0001EB8601032542
:107BD000257001F0E5FF03B0F0BD9842C6D91A68E0
:107BE00001321A46C2D05F88033703EB87039842FD
:107BF000DBD2BBE7084804250122257003B0BDE8AD
:107C0000F04002F06BB801F10802ADE71C2B002038
:107C1000382B0020002C0020282400202DE9F04FD4
:107C2000AC4E89B004464FF6FF773568002D00F062
:107C3000D9802A78531E052B67D8DFE803F0593125
:107C4000311D1D03002C40F0C380DFF8B0C29CF84A
:107C50000C209CF80030002A00F05281013B8CF887
:107C60000C40062B51D8DFE813F0E703F8020302BB
:107C7000D8015000FB02C802002C40F0A9802B79EB
:107C8000012B00F04A81C0F0DE800DF10C08022BC0
:107C90000394C8E90244C8F810403ED120463DE0B4
:107CA000B5F81490AB7D002C00F0A380022BEA887D
:107CB00040F2C4804FEA8904DFF8388204EB0901FE
:107CC00008EB8101D31C0A8913440B81EA884C44D8
:107CD00008EB84040DF10C086389033B9B1A002216
:107CE0006381C8F808200392C8E90322012015E047
:107CF000002C40F097802B79032B00F2DF80DFE827
:107D000013F080013D015501600100230DF10C08C5
:107D1000C8E90333C8F8083003930F2004902B7888
:107D2000023B042B0AD8DFE803F0472F230343006C
:107D300004238DF80C30EB88ADF81830664C04F154
:107D4000100554F8043B404603B19847A542F8D1CA
:107D5000624963480024346001F086F901216148DA
:107D600001F04AFA00287FF460AF09B0BDE8F08F57
:107D700003238DF80C30EB88ADF818302B89ADF863
:107D80001A30EB680593D9E702238DF80C302B8964
:107D9000ADF81830AB88ADF81A30EB680593AB7DC1
:107DA000A3F10603B3FA83F35B098DF81C30C5E732
:107DB00005238DF80C30C1E701238DF80C302B8999
:107DC000ADF81830AB88ADF81A30EB680593B5E71D
:107DD0000DF10C080023C8F808300393C8E90333F9
:107DE00001209BE73D493E4801F010F9054630600F
:107DF0001FE74FEA8904DFF8FC8004EB090108EB78
:107E00008101B1F808A0496801EB8A0A062B00F24B
:107E1000B682DFE813F0CC019301A501B80141015E
:107E20006C0186010DF10C082F4A00235360039367
:107E3000C8E90233C8F8103001206FE7DFF8B480DA
:107E40004FEA890443E702232B71CDE904440DF185
:107E50000C08EB68039340460DF10A01FFF7F4FDAF
:107E6000002800F0C1810499204A8B88EB800B88A0
:107E70002B811F4800940423BDF80A4001F090FEB6
:107E8000002840F0DE821B4B04EB840403EB8404E7
:107E90000123237469E701239A001A4408EB820343
:107EA000002059680090082308F82200124A104860
:107EB00001F076FE00283FF458AF35680A4A0DF10C
:107EC0000C08002353600393C8E90233C8F810304C
:107ED0000E2023E7342B0020042B00202C2B002025
:107EE000EC2B0020FC2B0020142B0020D843030097
:107EF00028240020382B0020DC4303001C2B00200A
:107F0000072B00F28382DFE813F0FA01810281027D
:107F10009D01E60178017801C001BF4B1B78002B61
:107F200000F05381DFF8F4E2BEF80490B9F1010FDC
:107F300015D8DFF80C8309EB890208EB82020432C2
:107F400012F8043C002B00F0088209F1010399B2F9
:107F500001299946AEF8043002F11402F0D90DF16E
:107F60000C0808220021AD480BF0DAFF0020C8F809
:107F700008000390C8E903003568CFE6DFF8C08247
:107F800098F80030022B00F0688298F81430022B29
:107F900081D0A14B0DF10C08002001221A70039032
:107FA0005860C8E90200C8F81000B7E69C4A9D482E
:107FB0001168002302242B719480012201F08EFEAF
:107FC00078E7974C984A21689648DFF874824FF01A
:107FD000000985F804900823CDF8009001F0E0FD39
:107FE000924B25685B88A18803EB830308EB83022F
:107FF00008F8239053682360022355601181A38001
:1080000058E7874B8A4A1968864801232B71002359
:108010000093082301F0C4FD4CE7BCF80230DFF800
:10802000208203EB830308EB8308D8F80C30002B85
:1080300000F0DC817A4B7B48196802229A80052285
:108040008CF800200023012201F048FE00283FF4B4
:108050008CAE0DF10C08002341F61D523568C8F8AE
:1080600008300393C8E90333904208BF184655E629
:10807000DCF804206A48538884880168694801EB69
:1080800084010333002400949BB203249B008CF8EA
:10809000004001F085FDD9E7664BAA6966491A6080
:1080A0004FF0000B1846C3F804B0FFF7CDFC0028D2
:1080B00000F0CA810223AB7504235146CDF800B00D
:1080C000EA18584801F06CFD00283FF44EAEAB7D35
:1080D000EA88022B4FF00E0026D84C4408EB8408A7
:1080E000B8F80A30033B9B1AA8F80A30B1E7524BA4
:1080F000504AB3F800A051684A48504A00234FF054
:10810000060C85F816C00093042301F049FD0028F1
:10811000DDD10AEB8A0A08EB8A08012388F81030BF
:1081200023E6EA8841F61D5004EB090108EB8101C2
:10813000D31C0A8913440B81EA88CEE7032A0CBFBB
:10814000052306230022AB750AF1040100920423E3
:1081500005F10802334801F023FD0028B7D104E6F9
:108160002B693048002B14BF032301230022AB7579
:108170000AF108010092042305F10C0201F010FD40
:108180000028A4D1F1E5EB882A6926484FF0010CBC
:1081900085F816C04FF0000C0AF10C019B00CDF8D9
:1081A00000C001F0FDFC00283FF4DFAD8FE70223A3
:1081B0000022AB75042300925146EA18194801F0D9
:1081C000EFFC00283FF4D1AD81E70DF10C08082247
:1081D000214612480BF0A4FE0394C8E90244C8F8F3
:1081E00010403568022099E50A200023C8E90033D1
:1081F000C8E90233C8F8103090E5094B0C4A1968F9
:10820000084800230093CCF8043007238CF8003092
:10821000082301F0C5FC19E7142B0020102C0020C6
:10822000002C002028240020DC4303001C2B00200D
:10823000E4430300F82A00200C2C0020D84303005C
:10824000382B0020884ADCF80410938849880333CF
:108250000B44022193808CF80010FFF76FFCF5E6C9
:10826000BCF80220DFF810829300134408EB830867
:1082700006200023D8F804107C4A00938CF80000F4
:1082800008237B4801F08CFCE0E601238CF80030E9
:108290009CF80A304BB1DFF8E081D8F80C300022AE
:1082A0008CF80A20002B00F0AB809CF80B30002BE0
:1082B00043D0DFF8C481D8F8203000228CF80B209E
:1082C000002B3AD198F82430BBB30123ACF802302C
:1082D000FFF734FCBAE6BCF80220DFF89C81624C60
:1082E0009300991808EB810120684D68B4F804E008
:1082F000486002202560A1F808E0A080B5E7DFF81B
:108300007881BCF8081098F8142098F80030B2FA78
:1083100082F252090131B3FA83F35B098CF80B2026
:10832000ACF80810002201218CF80A30ACF80220C9
:108330008CF80C208CF80010ACE70DF10C08002034
:10834000C8F808008CF80000ACF80200CCF8040073
:108350000390C8E903003568E0E41368DEF8001014
:1083600003F5805C03F1080A002968D04B880333C9
:1083700001EB83018C4505D8CEF80040E5E5EA889D
:108380000F20D1E60B680133F6D04B88033301EBA5
:1083900083039C45F0D38888B8421AD0B1F800B066
:1083A000BBF1000F15D0EB88CEF800108342DBD173
:1083B000002300932F4A2E48042301F0F1FB0028EC
:1083C0004DD109EB890908EB8908012388F81030A1
:1083D000CBE49C45D0D9196801311946CCD05888D6
:1083E000033003EB80039C45D5D2C5E704228CF80B
:1083F0000020D8F804101E48012201F06FFC25E689
:1084000098F81020002A3FF450AF5FE7013B062B9D
:108410003FF67BAC01A252F823F000BF3984020082
:108420005B820200718002001B8002000B7D020053
:1084300061820200FB8102009CF80A302AE7514663
:1084400098E735680E20D0E60DF10C080390C8E9D6
:108450000200C8F810000A2060E400231CE535681B
:108460000E200DF10C08C0E6002C0020DC430300B8
:1084700028240020D8430300382B00204068FFF751
:10848000CDBB00BF38B5084B1A68042A0AD01D6856
:10849000064C02460121184644F8252000F0A0FEB3
:1084A000002038BD0C2038BD082C0020042B0020F3
:1084B0002DE9F04FAB4C8BB022780023CDE905338A
:1084C000CDE90733099372B1A74C04F1100554F8B4
:1084D000043B05A803B19847A542F8D100252846DA
:1084E0000BB0BDE8F08F201D02F0FF0600F090FEFB
:1084F00007460028F2D140F6F8731B685D1C00F0B7
:10850000FA804FF0805211695269DFF884829749EE
:10851000C8F810304046A3F540530022C8F80C308C
:1085200001F010FB05460028D9D11C238C2290496C
:108530009048DFF860A200F0F3FCD8F80C90DFF868
:108540005882029609F5405348464FF0030B2A46DD
:108550009946002800F09D80036887498B4240F0CF
:108560009880436885498B4200F0188101318B4225
:1085700040F08F80029B63B102EB820C08EB8C0110
:1085800002260132DAF8003008F82C6092B24B6013
:108590000E818168CAF800004FF0020C0131AAF880
:1085A00004C000F5805300F108062DD04189033145
:1085B00006EB81008342C0F0B58060464FF6FF7E37
:1085C0000192B6F804C0F4450FD0B6F800C0BCF173
:1085D000000F0AD06A4AD6F808C01268944504D938
:1085E000674AC2F800C071880331084480B2AAF813
:1085F00004007188033106EB8106B34200F28680E5
:108600000228019A40F0318104210F439945184610
:108610009FD1BBF1010F40F28B80FFB2022F00F01F
:108620008780062F00F08E80002F00F0818004A943
:10863000504800F0AFFC1C22044600210BF070FCF7
:10864000002C00F010810123013F23700A2F09D86C
:10865000DFE807F0160816081C081C0819061900A0
:108660000223237104A9434800F0C0FC01214548BE
:1086700000F0AAFD00287FF431AFFFF7CFFA2EE714
:1086800000232371EEE703232371EBE7012323711A
:10869000E8E700F58053014601E08B4214D00E68F4
:1086A000013601F10401F8D002EB820108EB8106EA
:1086B0000BF1FF3B01324FF0030C1FFA8BFB92B220
:1086C00008F821C07060A1E7DAF8001091B32E4ECF
:1086D00002EB820108EB810C7280022602F1010E8E
:1086E00008F821601FFA8EF2CCF80400ACF808609C
:1086F00047F001078AE7254B4FF080521B6811694C
:108700005269581C08BF02FB01F3FEE631680131D3
:108710003FF476AF7188033106EB810C6345BFF4FB
:1087200050AF019A4FF48061AAF8041008216CE759
:108730000B25D4E60221AAF804100121CAF8000092
:108740000291D5E7084D01220023227005F11006A1
:10875000636055F8043B05A803B19847AE42F8D1D1
:10876000BCE600BF142B0020042B0020F8450300BA
:10877000602B0020EC2B0020DEC0ADDEFE011EF1E0
:10878000302B0020FC2B00201C2B0020141000108C
:1087900028240020002C0020382B00209300039375
:1087A000134408EB830C002108F823104FF0020358
:1087B000ACF80830CCF804008668013600F5805328
:1087C00000F1080140D0408900F1030E01EB8E0E4C
:1087D00073452FD302260192E646B1F804C04FF646
:1087E000FF72944537D0B1F800C0BCF1000F32D011
:1087F0001F4AD1F808C01268944505D91C4ABEF832
:108800000860C2F800C0488806440336B6B2AEF825
:1088100008604888033001EB80018B4219D9086851
:10882000013016D0488800F1030C01EB8C0C634535
:10883000D3D2019A0399114408EB81014FF480606F
:108840004FF001060E740881013292B247F0020720
:10885000DCE6019AF8E74FF001028EF81020488814
:10886000BEF80860D0E7082539E60821CDE600BF4C
:10887000302B002008B301B370B582B00C460DF167
:1088800006010546FFF7E0F8A0B1BDF806000C4B65
:108890006E6800EB800003EB800001210C3000F0DB
:1088A0009FFC26606B6801220C3300206360AA7273
:1088B00002B070BD0A2002B070BD0520704700BF35
:1088C000382B0020E8B110B582B00DF10601044646
:1088D000FFF7BAF890B1BDF806300C4A03EB8303FA
:1088E00002EB8303DA6872B1A27A62B1DA6800211E
:1088F000013A0846DA60A17202B010BD0A2002B047
:1089000010BD05207047062002B010BD382B002096
:10891000484B1B78002B32D0002934D00A884FF600
:10892000FF739A4229D04B883BB34B689B072CD1ED
:108930002DE9F043B1F8088008F103039BB240F23F
:10894000FD32934283B01CD83B4A17783FB9568911
:10895000148934441C44A4B2B4F5806F17D3147D39
:108960003CB9D68B948B34441C44A4B2B4F5806FCC
:108970005DD3072003B0BDE8F083042070470220D8
:1089800070470920F6E70520704703207047BC4672
:108990004FEA8C09E14402EB890933440C46054651
:1089A00001A92648A9F80A3000F0F4FA1C2206466C
:1089B00000210BF0B5FA5EB302234FF00009B78235
:1089C000337086F816906368336101211C4800F00B
:1089D00007FCF060238833816388B38001A9A6F87F
:1089E0000A90A6F80680154800F000FB45B1C5F8CE
:1089F0000490F268134B2A601B8985F80A902B813A
:108A00000121114800F0E0FB044660B10020B1E70D
:108A1000B9F80A30C8F57F4808F1FD089844A9F86C
:108A20000A800820A6E7FFF7F9F82046A2E7012709
:108A3000BC46ADE7142B0020382B0020EC2B002087
:108A4000302B00201C2B0020FC2B0020002836D0CF
:108A5000484B1B78002B30D0002930D00A884FF6C5
:108A6000FF739A422FD04B886BB34B689B0728D17A
:108A70002DE9F043B1F8089009F103039BB240F2ED
:108A8000FD32934283B020D83B4A15783DB95789CF
:108A900014893C441C44A4B2B4F5806F17D3147DF0
:108AA0003CB9D78B948B3C441C44A4B2B4F5806F82
:108AB0005BD3072003B0BDE8F08302207047052098
:108AC000704703207047042070470920F2E7A8464A
:108AD000AC464FEA8C05654402EB85053B440646EF
:108AE0000C4626486B8101A900F054FA1C22074667
:108AF00000210BF015FA57B300250323A7F81480C3
:108B00003B70BD7563683B6101211D4800F068FB47
:108B1000F86023883B816388BB800423A7F8069014
:108B2000BB753368BB6101A97D81144800F05EFA12
:108B30007560FA68134B32601B89B572338101216D
:108B4000114800F041FB044658B12846B2E76B8952
:108B5000C9F57F4909F1FD099944A5F80A90082053
:108B6000A8E7FFF75BF82046A4E74FF00108C446EA
:108B7000AFE700BF142B0020382B0020EC2B002087
:108B8000302B00201C2B0020FC2B0020184B1B78C6
:108B900023B34FF6FF7398421ED070B582B001A97F
:108BA0000446144800F0F6F91C22054600210BF09B
:108BB000B7F9ADB105230126EC8001A92B702E7108
:108BC0000C4800F013FA31460B4800F0FDFA044659
:108BD00048B1002002B070BD0420704702207047E9
:108BE000082002B070BDFFF719F8204602B070BD32
:108BF000142B0020EC2B0020FC2B0020194B1B78A1
:108C0000EBB110B582B001A9174800F0C3F91C22DE
:108C1000044600210BF084F90CB30623237001A94C
:108C2000114800F0E3F9114B1A7852B901211048AC
:108C300000F0CAFA044668B1002002B010BD02205C
:108C40007047012201210A481A7300F0BDFA044658
:108C50000028F1D1FEF7E2FF204602B010BD082047
:108C600002B010BD142B0020EC2B00201C2B002088
:108C7000FC2B00202DE9F043344C2478002C60D0EC
:108C80003AB333B39F88012F5ED8314C07EB870C82
:108C9000013704EB8C0CBFB24FF6FF7E4FF000089B
:108CA0009CF8004074B91C68DCF8045005F5805647
:108CB000002C43D06588033504EB8504B4420BD304
:108CC000C3F80080022F9F800CF1140C3CD00227C7
:108CD000E6E70520BDE8F08325680135F0D065881A
:108CE000033504EB8505AE42EAD3B4F80490F145B0
:108CF00015D0B4F80090B9F1000F10D01C60A58811
:108D00008542D1D125888D42CED1A16811601968E4
:108D1000104B51601B8913810020BDE8F083AE42E7
:108D2000CED92C6801342C46CAD0B5F8029009F18E
:108D3000030905EB8905AE42D7D2C1E705F1080466
:108D4000BCE70220BDE8F0830A20C3E7142B002013
:108D5000382B00201C2B0020334B1B78002B5CD0C1
:108D600051B34AB32DE9F0419588012D5AD82F4FC0
:108D700005EB850307EB830701353B78ADB24FF672
:108D8000FF7C4FF0000E43B1022D958007F11407D0
:108D900048D03B780225002BF6D113687C6804F597
:108DA0008056002B3BD05C88033403EB8403B34232
:108DB00004D3C2F800E0E7E7052070471C680134DF
:108DC000F7D05C88033403EB8404A642F1D3B3F8F4
:108DD0000480E04512D0B3F80080B8F1000F0DD048
:108DE00013601C888442D9D19B680B601268104BB9
:108DF0004A601B890B810020BDE8F081A642D8D9CA
:108E0000236801332346D4D0B4F8028008F1030864
:108E100004EB8804A642DAD2CBE70220704704F1C3
:108E20000803C4E70A20E7E7142B0020382B0020B2
:108E30001C2B0020334B1B78002B5CD051B34AB362
:108E40002DE9F0419588012D5AD82F4F05EB850368
:108E500007EB830701353B78ADB24FF6FF7C4FF04F
:108E6000000E43B1022D958007F1140748D03B78DE
:108E70000225002BF6D113687C6804F58056002B80
:108E80003BD05C88033403EB8403B34204D3C2F8C1
:108E900000E0E7E7052070471C680134F7D05C88E4
:108EA000033403EB8404A642F1D3B3F80480E04515
:108EB00012D0B3F80080B8F1000F0DD013609C8879
:108EC0008442D9D19B680B601268104B4A601B89A1
:108ED0000B810020BDE8F081A642D8D92368013378
:108EE0002346D4D0B4F8028008F1030804EB8804C8
:108EF000A642DAD2CBE70220704704F10803C4E7A8
:108F00000A20E7E7142B0020382B00201C2B002020
:108F100020B119B103680B6000207047052070472D
:108F200099B110B4B2FBF3F403FB1424A4B244B916
:108F3000C0E9001484608281C38120465DF8044B3F
:108F4000704709205DF8044B70470E20704700BF42
:108F500082B050E8022FC188B2EB324F4FF00003CD
:108F600017BF92B241EA014142EA014104E042687E
:108F7000B2EB324F08BF012340E80212002AE8D1C9
:108F80008DF807309DF80730002B0CBF1120002012
:108F900002B0704730B482B050E8013F9DB2C4893E
:108FA00025448489A54228BF2D1B0489A54202BF00
:108FB000BFF32F8F002207E0C5EA030540E8015404
:108FC000002CE9D14FF001028DF803200193019BA1
:108FD0009DF803200B602AB10B880068184402B08A
:108FE00030BC704702F0FF031846F8E70A884B8848
:108FF0009A4201D00020704750E8012FC2EA024295
:1090000040E80123002BF7D10120704730B482B033
:1090100050E8023F1FFAA3F5C488A54202BFBFF380
:109020002F8F00220DE0C48925448489A54228BFE2
:109030002D1BC3EA054540E80254002CE8D14FF04F
:1090400001028DF803200193019B9DF803200B6022
:109050002AB14B880068184402B030BC704702F057
:10906000FF031846F8E700BF0A884B889A4201D0F0
:109070000020704750E8022FC2EA224240E8022353
:10908000002BF7D10120704701F01F024B0901218D
:1090900000EB8300914000F07FB800BF10B50123C2
:1090A00001F01F04490900EB810003FA04F100F00C
:1090B00067F8E04000F0010010BD00BF01F01F02A2
:1090C00001234909934000EB8100D94300F070B8B7
:1090D0004B0901F01F0150F82300C84000F00100C7
:1090E000704700BF2DE9F84F01F1FF394FEA5913DE
:1090F00000F104090F46064609EB830904460025E2
:109100004FF0010823686FEA030B9BFAABFBBBFA35
:109110008BFBBBF1200F20D0AB445F450CD81CE08B
:109120002368DB4393FAA3F3B3FA83F3202B05EB15
:10913000030B12D05F4510D90BF01F0A4FEA5B10EA
:1091400008FA0AF106EB800000F01AF820FA0AF09B
:10915000C307E5D45846BDE8F88F04344C4505F103
:109160002005CFD1BB465846BDE8F88F50E8002F08
:109170000B4640E8003C9CF0000FF7D110467047CA
:1091800050E8002F42EA010340E8003C9CF0000F49
:10919000F6D11046704700BF50E8003F43EA010295
:1091A00040E8002C9CF0000FF6D11046704700BF3D
:1091B00050E8003F03EA010240E8002C9CF0000F59
:1091C000F6D11046704700BF50E8002F02EB0103B4
:1091D00040E8003C9CF0000FF6D11046704700BFFD
:1091E00050E8003F03EB010240E8002C9CF0000F28
:1091F000F6D11046704700BF50E8003FA3EB0102D4
:1092000040E8002C9CF0000FF6D11046704700BFDC
:10921000012350E800CF4CEA030240E8002191F01E
:10922000000FF6D160467047012350E8002F42EA54
:10923000030C40E800C191F0000FF6D16046704782
:10924000002350E800CF0CEA030240E8002191F02F
:10925000000FF6D160467047F0B583B002AB002531
:1092600003F8015D04461846FEF7B0FBD4E900316F
:109270001A688A4210D9511E19602168A3680F68C4
:1092800012F8015C0A79268AE068DB1BDBB29A429D
:1092900006FB050538BF0B719DF80700FEF7BCFB08
:1092A000284603B0F0BD00BF30B583B002AB00224A
:1092B00003F8012D054618460C46FEF787FB2A6881
:1092C0001368591C1160E9682A8A641AB4FBF2F425
:1092D0001C709DF80700FEF79FFB03B030BD00BF78
:1092E000826842B110B50446436901680069984735
:1092F0000023A36010BD70470EB400B582B003997F
:1093000029B102AA04AB42F8043D00F0A9F802B06A
:109310005DF804EB03B070472DE9F04F924683B03F
:1093200051450F4605461E46DDE90CB2C0F092805D
:109330000B464FF00108B3FBFAF39A4508F1010818
:10934000F9D9B04538BFB04612F00109A96802D179
:10935000BBF1000F54D1012402E0013E0AFB04F4EA
:10936000012EFAD8B7FBF4F08245F7D93B4E02E064
:10937000A968B7FBF4F0335C2A680A2B04FB10776A
:1093800002EB010E01F1010029D0A8608EF8003037
:10939000D5E90131994202D32846FFF7A1FFB4FB7A
:1093A000FAF4002CE4D1B9F1000F15D0BBF1000F95
:1093B00012D0C34510D92024AB682A68591CA96073
:1093C000D454D5E901329A420BF1FF3B14D2BBF1E0
:1093D000000F01D0C345EFD103B0BDE8F08FA86006
:1093E0004FF00D005054D5E9011088421DD2296874
:1093F00001EB000E0130C8E72846FFF771FFE6E7F2
:10940000930722D42024C345A5D92B684A1CAA60FF
:109410005C54D5E9013199420BF1FF3B10D2BBF10D
:10942000000F98D0C345F0D195E728460193FFF788
:1094300057FFAA682968019B501C01EB020EA4E7A4
:109440002846FFF74DFFA968E9E7002E0CBF30243E
:109450002024D8E74FF0010873E700BFEC43030076
:10946000002900F0B9822DE9F04F054687B09146FA
:109470000C460E78DFF8C8A64FF00D0B13E0AB6872
:1094800028680A2E03F1010200EB030100F04B8271
:10949000AA600E70D5E901329A4280F01B812678CD
:1094A000002E00F01E810134002E00F01A81252EBE
:1094B000E5D12346002713F8012B2D2A00F0E38085
:1094C000302A00F0E4802B2A00F0D4802A2A00F011
:1094D0000D81A2F13006F1B2092903D97DE2A1F193
:1094E00030060346184606EB860110F8012BA2F160
:1094F0003004092C02EB4101F1D92E2A00F002813F
:109500004FF00008013301E013F8012B02F0FB01DA
:1095100068291C46F8D0253A532AC0D801A353F82D
:1095200022F000BF0F9902009F9402009F94020056
:109530009F9402009F9402009F9402009F94020057
:109540009F9402009F9402009F9402009F94020047
:109550009F9402009F9402009F9402009F94020037
:109560009F9402009F9402009F9402009F94020027
:109570009F9402009F9402009F9402009F94020017
:109580009F9402009F9402009F9402009F94020007
:109590009F9402009F9402009F9402009F940200F7
:1095A0009F9402009F9402009F9402009F940200E7
:1095B0009F9402009F9402009F9402009F940200D7
:1095C0009F9402009F9402009F9402009F940200C7
:1095D0009F9402009F9402009F9402009F940200B7
:1095E0009F9402009F9402009F9402009F940200A7
:1095F000F39802009F9402009F9402009F9402003F
:109600009F9402009F9402009F9402009F94020086
:109610009F9402009F9402009F940200979602007C
:10962000799802009F9402009F9402009F94020088
:109630009F940200799802009F9402009F94020078
:109640009F9402009F9402009F9402009F94020046
:10965000E19702009F9402009F9402005997020034
:109660009F9402003D9702009F9402009F94020085
:10967000F398020047F004071C46234613F8012B19
:109680002D2A7FF41DAF47F001071C46F5E747F090
:1096900002071C46F1E7D9F800301A1DC9F800206E
:1096A0001E78AB680A2E0CD12A68591CA96002F8F2
:1096B00003B0D5E90123934203D32846FFF710FEF8
:1096C000AB682A68591CA960D654D5E901329A4280
:1096D000FFF4E5AE2846FFF703FE2678002E7FF460
:1096E000E2AE2B7B23BB07B0BDE8F08FD9F800209A
:1096F000111DC9F80010166862782E2A04F10200C4
:109700007FF4FEAE5A78A2F13003092B00F2BD813E
:109710004FF0000808EB880802EB480810F8012F0A
:10972000A2F13003092BA8F13008F3D90346E9E68A
:10973000284607B0BDE8F04FFFF7D2BDD9F800309A
:109740001A1DC9F8002019680197434600960A229D
:109750002846FFF7E1FDA2E6D9F800301A1DC9F846
:109760000020D3F80080FB0700F1E880B8F1000F7B
:1097700000F0A18140460AF0DBFB0746BE4215D946
:10978000A6B1202100E08EB1AA682B68501CA86009
:109790009954D5E901329A4206F1FF3604D328469E
:1097A0000391FFF79DFD0399BE42ECD108F1FF380C
:1097B00018F8016F002E3FF472AEAB6828680A2ECD
:1097C00003F1010200EB030100F09081AA600E702A
:1097D000D5E901329A42EBD32846FFF781FDE7E74E
:1097E000D9F80020131DC9F80030AB682968176844
:1097F000581C3022A860CA54D5E90123934280F056
:10980000E6802A68581C7821A860D154D5E9012344
:10981000934280F0D7800F2F03D93A4612090F2ABE
:10982000FCD84FF080560DE0AA6081F80080D5E9A1
:1098300001329A4202D32846FFF752FD36093FF41F
:109840002EAEAB68B7FBF6F21AF802802868B8F1C2
:109850000A0F06FB127700EB030103F10102E3D1CB
:10986000AA6000F803B0D5E901329A4280F049813C
:109870002B6899180132D7E7D9F800301A1DC9F8BA
:109880000020196881EAE173A3EBE173092B40F32F
:109890000E81AA480122A0FB03C3DB08092B02F1B9
:1098A0000102F8DC4245134638BF4346039307F0F4
:1098B0000203002E40F09580002B00F0B780B8F135
:1098C000000F00F0F680F80740F1B0800029C0F2E8
:1098D000FF807A0700F1C88007F00303022B00F035
:1098E000A780CDE9006743460A222846FFF714FD0A
:1098F000D5E5D9F800301A1DC9F80020196801977C
:109900004346009610222846FFF706FDC7E5AB68E0
:109910002A68581C2521A860D154D5E901329A4201
:10992000FFF4BDADD6E6AA6000F803B0D5E9013278
:109930009A423FD2296811440132A9E54146A1EB80
:10994000080311F8017BD7B1AB68D5F800C00A2F26
:1099500003F101020CEB030000F0AF80AA60077076
:10996000D5E901329A42EAD328460391FFF7B8FCC1
:109970000399A1EB080311F8017B002FE4D19E426B
:109980007FF68DAD202702E0002E3FF488ADA96858
:109990002A68481CA8605754D5E90121914206F174
:1099A000FF3604D328460393FFF79AFC039BB34288
:1099B000EAD174E52846FFF793FCAB6829685A1C86
:1099C000194465E52846FFF78BFCAB6823E728467A
:1099D000FFF786FCAB6814E770471846002623465D
:1099E0008BE5002920DB7A071ED41BB1B8F1000FEC
:1099F0003FF46CAFF8073FF569AFBEB1039BB342CC
:109A0000BFF464AF2023AA68501CA8602868835460
:109A1000D5E90102824206F1FF3640D236B1039AFF
:109A2000B242F0D1164651E7013EDEE700264DE78F
:109A3000B8F1000F7FF455AF002E6AD0039BB342FC
:109A4000BFF44FAF3023AA68501CA8602868835425
:109A5000D5E90102824206F1FF3618D2002E58D015
:109A6000039AB242EFD13CE7AA68531CAB602B6863
:109A70002B209854D5E901329A42FFF42DAF2846A5
:109A80000491FFF72DFC049926E7034638E52846A4
:109A9000CDE90413FFF724FCDDE90413DEE72846D3
:109AA000CDE90413FFF71CFCDDE90413B6E701223E
:109AB000F8E646460AE7474660E6AA600CF803B0B7
:109AC000D5E901329A4226D22B689818013245E72F
:109AD000AA68531CAB602B682D209854D5E901323D
:109AE0009A42C1F10001FFF4F7AEC8E7AA6000F89E
:109AF00003B0D5E901329A4217D2296811440132E4
:109B000064E62846FFF7ECFBA9682B684A1C194459
:109B10008AE60026E5E628460391FFF7E1FBA86800
:109B20002B680399421C184418E72846FFF7D8FB16
:109B3000AB6829685A1C194448E600BFCDCCCCCC90
:109B4000EC43030010B582B038B1B9B101600B68C5
:109B5000114602B0BDE8104018470B480B4C0C4BA7
:109B60000C4A0D49001BC0080E24000440F00100FF
:109B70000094FCF7EBFF0E2002B010BD0248034C2E
:109B8000034B064AEDE700BF44670300EC660300A1
:109B9000FC430300B0440300B8440300E444030062
:109BA0002DE9F04182B0002854D0002A64D0D0F8CA
:109BB00000C0BCF1000F69D01C46002B33D04768B1
:109BC000D7F80480B3FBF8F708FB1737002F3CD118
:109BD0008F0723D112F0030F53D1C768B94211D2B6
:109BE0003248334C334B344A3449001BC0081024EC
:109BF000000440F001000094FCF7A8FF204602B0EA
:109C0000BDE8F0814E1E05693444AC42E8D8DCF86A
:109C10000C40A44602B0BDE8F04160472348244C04
:109C2000244B274AE0E72148214C224B254A23496F
:109C3000001BC0080924000440F001000094FCF758
:109C400085FF204602B0BDE8F0811848184C194B3A
:109C50001D4AECE71548164C164B1C4A1749001BC9
:109C6000C0080E24000440F001000094FCF76EFFD1
:109C7000204602B0BDE8F0810C480D4C0D4B144A53
:109C8000ECE70A480A4C0B4B124AADE7084C074870
:109C9000084B114A0949001BC0080824000440F081
:109CA00001000094FCF752FF2046A8E74467030038
:109CB000EC66030010440300B4450300B8440300FD
:109CC00078450300F44403004C450300B04403000E
:109CD000444503009045030038450300F0B583B0C8
:109CE000002843D0D0F800C0BCF1000F4ED03AB3EA
:109CF0004768D7F800E00EF1FF370F4231D1C7684F
:109D0000B94210D229482A4C2A4B2B4A2B49001B16
:109D1000C0081024000440F001000094FCF716FF76
:109D2000204603B0F0BD4D1E04690EFB0255A5424E
:109D3000E8D8DCF81040A44603B0BDE8F040604726
:109D40001B4C1A481B4B1E4A1C49001BC008092407
:109D5000000440F001000094FCF7F8FE204603B038
:109D6000F0BD1248124C134B164ACFE7104C0F4867
:109D7000104B154A1149001BC0080E24000440F086
:109D800001000094FCF7E2FE2046CAE7084C0748B1
:109D9000084B0E4A0949001BC0080824000440F083
:109DA00001000094FCF7D2FE2046BAE744670300A6
:109DB000EC6603002444030060440300B84403003D
:109DC000F444030038440300B04403003845030062
:109DD00029DF704728DF704708467047002070472A
:109DE000024B187A003018BF01207047B42C0020B5
:109DF000034B187A0122B0FA80F05A744009704778
:109E0000B42C002008B510461A460AF07EF800204F
:109E100008BD00BF08B51422002104480AF080F8EC
:109E20000348FFF795F8002008BD00BFB42C0020C0
:109E3000A42C002010B5094C094B43602046FFF7C5
:109E4000E7F940B908F03AFF1C2320748C22054939
:109E50000548FFF765F8002010BD00BFB42C0020B6
:109E6000EC450300182C0020A42C002030B55E4CDB
:109E7000237A87B0002B3AD05C4B1B6802222272F7
:109E80001A79002A3ED0012A0CD1D3E903021044EA
:109E9000FFF7A0FF002849D0112803D10123237226
:109EA00007B030BD19688A68C2B1002268460092C6
:109EB000C0E902220325026101959A6805921A7988
:109EC000002A4BD0012A07D102228DF80020DA683F
:109ED000120302925B6904938B68984700234449FC
:109EE000444823726360FFF7BFF807B030BD4049B4
:109EF0004048FFF78BF83D4A034610600028BDD16B
:109F00006060F2E7D3E90525521BB2F5805F28BFF8
:109F10004FF48052D3E903109208012A38BF01227E
:109F200029442844FFF754FF0028B5D1227C002A99
:109F3000DBD1227A002AD8D0022A0AD1E0601A792D
:109F4000DAB1012A05D1D3E9042101328A421A612A
:109F50001FD0637C73B108F0A1FEC6E701228DF823
:109F600000201A690292DA6803925B6904938B6895
:109F70009847B3E7FFF77AFFB7E7D3E90512881AE6
:109F8000B0F5805F94BF121802F5805291429A6139
:109F9000DFD10022227219688868A8B16846009251
:109FA000C0E90122C0E903229A6805921A7982B1B8
:109FB000012A07D102228DF80020DA6812030292EA
:109FC0005B6904938B68984709490A48FFF74CF886
:109FD000BFE701228DF800201A690292DA68039225
:109FE0005B690493EEE700BFB42C0020CC2C00206A
:109FF000C82C0020A42C00202DE9F04782B0824616
:10A000008946174801A990461F46FEF7C3FF10B3C3
:10A01000044600211C220D46124E09F081FF0A9BC6
:10A02000C4F800A0A360C4E90389676101A9257190
:10A030000B48FEF7DBFF301DFFF7EAF838B9747CF8
:10A0400034B9FFF713FF204602B0BDE8F087284679
:10A0500002B0BDE8F087042002B0BDE8F08700BF81
:10A06000A42C0020B42C00202DE9F04383B08146BD
:10A070000D46164801A917469846FEF78BFF08B310
:10A0800004461C22002109F04BFF114EC4F8009039
:10A0900001232D0BC4E90285676101A923710B48D7
:10A0A000FEF7A4FF301DFFF7B3F838B9747C34B95C
:10A0B000FFF7DCFE204603B0BDE8F083002003B0CC
:10A0C000BDE8F083042003B0BDE8F083A42C002099
:10A0D000B42C002000F0FD03012B00D0704730B5F8
:10A0E000604CA0F10100B0FA80F0237A4009002210
:10A0F00087B020746274002B3AD05B4B1B6802223D
:10A1000022721A79002A3ED0012A0CD1D3E9030227
:10A110001044FFF75FFE002849D0112803D1012326
:10A12000237207B030BD19688A68C2B10022684640
:10A130000092C0E902220325026101959A68059206
:10A140001A79002A4BD0012A07D102228DF800206B
:10A15000DA68120302925B6904938B6898470023C4
:10A160004249434823726360FEF77EFF07B030BD6B
:10A170003E493F48FEF74AFF3B4A0346106000282D
:10A18000BDD16060F2E7D3E90525521BB2F5805FCF
:10A1900028BF4FF48052D3E903109208012A38BF38
:10A1A000012229442844FFF713FE0028B5D1227C60
:10A1B000002ADBD1227A002AD8D0022A0AD1E06014
:10A1C0001A79CAB1012A05D1D3E9042101328A42A0
:10A1D0001A611DD0637C63B108F060FDC6E70122FF
:10A1E0008DF800201A690292DA6803925B69049381
:10A1F000B3E7FFF73BFEB9E7D3E90512881AB0F5DC
:10A20000805F94BF121802F5805291429A61E1D1A9
:10A210000022227219688868A8B168460092C0E9D5
:10A220000122C0E903229A6805921A7982B1012AB3
:10A2300007D102228DF80020DA68120302925B69CE
:10A2400004938B68984709490948FEF70DFFC1E759
:10A2500001228DF800201A690292DA6803925B6984
:10A260000493EEE7B42C0020CC2C0020C82C002056
:10A27000A42C0020831E012B00D9704730B58E4CD2
:10A28000237A87B0002B31D0022B2BD103286BD13E
:10A29000E3680133082B79D9884B00221B68E26000
:10A2A00022720D2519688A68C2B1002268460092A0
:10A2B000C0E90222026101959A6805921A79002A82
:10A2C00000F0B980012A07D102228DF80020DA6857
:10A2D000120302925B6904938B6898477849794826
:10A2E000FEF7C2FE637C1BB108F0D8FC07B030BD9E
:10A2F000237A002B5BD0714B1B68022222721A79E1
:10A30000002A5FD0012A0BD1D3E903021044FFF7E2
:10A3100061FD002869D0112802D101232372E5E7ED
:10A3200019688A68C2B1002268460092C0E9022218
:10A330000325026101959A6805921A79002A70D066
:10A34000012A07D102228DF80020DA681203029256
:10A350005B6904938B6898470023594959482372D5
:10A360006360FEF781FEC1E7544B00221B68E26088
:10A370001A796AB1012AB5D1D3E9042101328A429E
:10A380001A6111D0637C002BAED1B4E7E360F9E72A
:10A39000D3E90512881AB0F5805F94BF121802F550
:10A3A000805291429A61EDD1002525727AE74449A5
:10A3B0004448FEF72BFE414A0346106000289CD11A
:10A3C000606093E7D3E90525521BB2F5805FD3E9BE
:10A3D000031028BF4FF480529208012A38BF01228F
:10A3E00029442844FFF7F4FC93E7227C002A7FF4F9
:10A3F0007DAF227A002A3FF479AF022A0AD1E060C9
:10A400001A7912B3012A05D1D3E9042101328A4213
:10A410001A6126D0637C002B7FF466AFFFF726FD20
:10A4200064E701228DF800201A690292DA6803922B
:10A430005B6904938EE701228DF800201A6902926D
:10A44000DA6803925B69049346E7D3E90512881A38
:10A45000B0F5805F94BF121802F5805291429A6164
:10A46000D8D10022227219688868A8B16846009283
:10A47000C0E90122C0E903229A6805921A7982B1E3
:10A48000012A07D102228DF80020DA681203029215
:10A490005B6904938B68984709490A48FEF7E4FD15
:10A4A000B8E701228DF800201A690292DA68039257
:10A4B0005B690493EEE700BFB42C0020CC2C002095
:10A4C000C82C0020A42C00202DE9F041058ACE1CC8
:10A4D000043D2E440746B6FBF5F6FEF7BDFE78B305
:10A4E000F6B24FF48073013E0446C5800760838056
:10A4F00027D08046002509E06379AE4203F10103CD
:10A500006371C8F80000076080461AD03846FEF72D
:10A51000A3FE01350028EFD16679721E14D02346C0
:10A52000013082421B68FBD11F684EB100252368B1
:10A530002146013538461C46FEF7B6FEAE42F6D13E
:10A5400000242046BDE8F0812768EFE704300121B0
:10A55000FEF746BEF8B5012104460430FEF74CFE76
:10A56000C0B200B1F8BD6679721E12D02346013028
:10A5700082421B68FBD11F68002EF3D000252368A0
:10A580002146013538461C46FEF78EFEAE42F6D116
:10A59000F8BD2768F2E700BF2DE9F843C788467980
:10A5A00007FB06F6043E02EB030C0446664503F186
:10A5B000040015468846B0FBF7F238BFF51A07FBD2
:10A5C000120012B1013A2468FCD13E1AAE4228BFF3
:10A5D0002E469DB14FF000090430AD1B2044324699
:10A5E00008EB090109F091FCAF42B14424683E46F2
:10A5F0004FF0000028BF2E46002DEDD1BDE8F883B6
:10A600002DE9F843C7884679154607FB06F6043E50
:10A6100005EB030C1A1D664504468846B2FBF7F0AD
:10A6200038BFF51A07FB102110B101382468FCD19E
:10A630007E1AAE4228BF2E469DB14FF0000904316C
:10A640002144AD1B324608EB090009F05EFCAF4225
:10A65000B14424683E464FF0000128BF2E46002D2D
:10A66000EDD1BDE8F88300BF41DF7047064A074BD4
:10A6700010B5002414701C60BFF35F8F04490548B7
:10A6800000F032F8204610BDD82C0020DC2C002031
:10A6900018460300D02C002000B583B002A8002388
:10A6A00000F8013DFDF792F9F1EE103A23F09F0317
:10A6B000E1EE103ABFF35F8F0A4B4022C3F88421CA
:10A6C0009DF80700FDF7A8F908F0F8FA28B920BFAF
:10A6D00040BF20BF03B05DF804FBFFF7C5FF03B028
:10A6E0005DF804FB00E100E001600B6843604A682C
:10A6F000934204BF00234360704700BF436843B1E7
:10A70000026891680B4443605268934204BF00237F
:10A710004360704730B4184DA5F59472AB1ADB1046
:10A7200003EBD3735B1002EBC30152F83330984252
:10A7300028BF0C4605D311E052F8333098420CD2B2
:10A7400021468B1ADB1003EBD3735B108A4202EBBA
:10A75000C304F1D3094830BC70470D46984204D970
:10A7600004F10802AA42D9D3F4E76068034B002839
:10A7700008BF1846EFE700BF6C47030030460300F0
:10A7800010B44FF080414FF080520020C1F80C010E
:10A790005E4BC1F81001C1F83805D2F80414C3F8B3
:10A7A0002015D2F80814C3F82415D2F80C14C3F8F5
:10A7B0002815D2F81014C3F82C15D2F81414C3F8C5
:10A7C0003015D2F81814C3F83415D2F81C14C3F895
:10A7D0004015D2F82014C3F84415D2F82414C3F855
:10A7E0004815D2F82814C3F84C15D2F82C14C3F825
:10A7F0005015D2F83014C3F85415D2F83414C3F8F5
:10A800006015D2F83814C3F86415D2F83C04C3F8C4
:10A810006805D2F840043E49C3F86C050968D2F8CF
:10A820004424C3F87025082924D04FF08043D3F87E
:10A830000024D20744BF6FF00102C3F80024354A58
:10A84000D2F8883043F47003C2F88830BFF34F8FDA
:10A85000BFF36F8F4FF01023D3F80022002A23DBC1
:10A86000D3F80432002B1FDB2B4B2C4A1A605DF807
:10A87000044B70472A4B1B68002BD6D129482A4A23
:10A880002A4C04602A492B4BFB20C2F818050A68A1
:10A890001B68294822F00F0203F00F0313434FF403
:10A8A00000720B600260C0E7244B0122C3F804254C
:10A8B000D3F80024002AFBD04FF0102312221F49A6
:10A8C000C3F80022D1F80034002BFBD04FF0102247
:10A8D00012211A4BC2F80412D3F80024002AFBD02C
:10A8E00000221649C3F80425D1F80034002BFBD010
:10A8F000BFF34F8F0749124BCA6802F4E06213435B
:10A90000CB60BFF34F8F00BFFDE700BF00C000402A
:10A910003001001000ED00E02C2200200090D00358
:10A92000340100108C56004000F0004048810300C4
:10A93000E40E0040580200104096024000E0014042
:10A940000400FA05074B185C1F288ABF064B4FF01E
:10A95000A04300F01F00D3F8043523FA00F000F004
:10A96000010070475C4B030000030050074B1B5C69
:10A970001F2B86BF03F01F0305494FF0A0410122A2
:10A9800002FA03F3C1F80835704700BF5C4B0300BF
:10A9900000030050074B1B5C1F2B86BF03F01F03F7
:10A9A00005494FF0A041012202FA03F3C1F80C352A
:10A9B000704700BF5C4B0300000300504FF0A04302
:10A9C0004FF080514FF00052C3F80C15C3F80C251E
:10A9D000704700BF4FF0A0434FF080514FF000523E
:10A9E000C3F80815C3F80825704700BF0A4B195C67
:10A9F0001F298ABF09484FF0A04001F01F01D0F87D
:10AA0000043501228A4022EA03011340C0F80815E8
:10AA1000C0F80C35704700BF5C4B030000030050CA
:10AA2000074B185C1F288ABF064B4FF0A04300F06D
:10AA30001F00D3F8103523FA00F000F00100704732
:10AA4000584B030000030050022805D003280CBF18
:10AA500001204FF0FF30704700207047014B185C19
:10AA6000704700BF584B0300C10709D4830741BF9B
:10AA70004FF0A0430022C3F80827C3F80C27704703
:10AA80004FF0A043032210B44FF00051C3F87027D9
:10AA90004FF08054C3F874278207C3F80C45C3F8FD
:10AAA0000C1506D54FF0A0430022C3F80827C3F8C1
:10AAB0000C275DF8044B704710B570B101280BD11D
:10AAC0000D4C2369A0703BB1D3E900230120226122
:10AAD00098472369002BF7D110BD074CA3680122CA
:10AAE0006270002BF8D0D3E900230020A2609847C1
:10AAF000A368002BF7D1EFE7E02C002070B910B568
:10AB0000074CA368012262703BB1D3E90023002007
:10AB1000A2609847A368002BF7D110BD704700BF13
:10AB2000E02C002030B5012883B01CD015D30328B9
:10AB300011D100F0CDF802A800231F4C00F8013D10
:10AB4000FCF744FFE368013BE360E56865B39DF80B
:10AB50000700FCF761FF03B030BD184B0122C3F8BA
:10AB6000802003B030BD02A80023134C00F8013D43
:10AB7000FCF72CFF237853B1E3689DF807000133FD
:10AB80000122E360A270FCF747FF03B030BD0C4820
:10AB90006360A3602361E36000F08CF808F08EF836
:10ABA00030B101232370E7E700F0A4F8A570CEE7E9
:10ABB00000F08EF8F5E700BFE02C002000E100E097
:10ABC000B9AA020030B585B0047845688DF8004018
:10ABD000D0E90240064A074B039053F82130019513
:10ABE0008DF8084052F821106846984705B030BDEE
:10ABF000F42C0020FC2C002030B585B0047845688A
:10AC00008DF80040D0E90240064A074B039053F804
:10AC1000213001958DF8084052F821106846984778
:10AC200005B030BDF42C0020FC2C00202DE9F043B1
:10AC3000DFF8748006784B7F08F806300D4607462B
:10AC400096460FCD89B06C460FC495E80F003D784D
:10AC5000DFF85890DFF858C018F8055049F826E09A
:10AC600084E80F004CF82600049665B1BEF1000F91
:10AC70000B4A694607F1040008BF002201F076F88C
:10AC800009B0BDE8F083BEF1000F064A694607F13E
:10AC90000C0008BF002200F005FE09B0BDE8F083FB
:10ACA000C5AB0200F9AB020038350020FC2C0020B7
:10ACB000F42C0020054A13792BB90121106053713F
:10ACC0001846117170478520704700BF042D002081
:10ACD000074B1A68D20704D4C021012283F800135D
:10ACE0001A604FF080430122C3F81825704700BF57
:10ACF00000E100E0044B01221A604FF08042D2F8DC
:10AD00001834DB03FBD470470C00004010B5154B22
:10AD10001A6882B07AB10021134A19601B68507911
:10AD200000934FF080410123009CC1F8083310B913
:10AD30001168537188470D4B1A6882B100221A605E
:10AD40001B6801934FF080420221074B0198C2F823
:10AD500008131B68012002B0BDE81040184702B07C
:10AD600010BD00BF00010040042D00200401004080
:10AD700030B5204C94F86A5083B0002D36D14FF096
:10AD8000FF332946062204F16400C4E90033C4E914
:10AD90000233C4E90433C4E90633C4E90833C4E91F
:10ADA0000A33C4E90C33C4E90E33C4E91033C4E9EF
:10ADB0001233C4E91433C4E91633236609F0B0F83A
:10ADC0000D4A0E4B0E491D60C02082F8060340203C
:10ADD00010601B68019301984FF000430122284640
:10ADE00084F86A20C1F8043303B030BD082003B0F2
:10ADF00030BD00BF0C2D002000E100E07C61004070
:10AE000000600040034B93F86A00003018BF012037
:10AE1000704700BF0C2D0020F0B5744B1C1894F93E
:10AE20003050002D6ADA8E78C6F340069646002E22
:10AE30005ED11D6A013500F0C48009240C2553F849
:10AE4000247001375DD004F1010C53F82C700137E8
:10AE500000F0C280A71CAF4248D253F8272001322D
:10AE600000F0BC8004F1030CAC453FD253F82C70C9
:10AE7000013700F0B18004F1040CAC4536D253F830
:10AE80002C70013700F0A88004F1050CAC452DD2E0
:10AE900053F82C70013700F09F8004F1060CAC458C
:10AEA00024D253F82C70013700F0968004F1070C7F
:10AEB000AC451BD253F82C70013700F08D8004F1A3
:10AEC000080CAC4512D253F82C70013700F0848086
:10AED00004F1090CAC4509D253F82C7001377BD032
:10AEE0000A34AC4202D2DC6A013409D00420F0BD3D
:10AEF0001D68013574D001240825A0E70820F0BDA5
:10AF00000B241F1865B243F824E087F83050002E58
:10AF10005ED08A7854071AD4D60741D41F284A78BD
:10AF200087BF334E00F01F0404464FF0A04604F5DF
:10AF3000E074920046F824202E4EC40800F0070C5E
:10AF4000375D012202FA0CF23A4332558A780C78C6
:10AF500012F0020209D1083D2B44104693F86020FC
:10AF600042EA841483F86040F0BDAB0003F18043F3
:10AF700003F5C0430202D3F8101521F44F3121F438
:10AF80004071C3F810152404D3F8101504F44034AC
:10AF900002F47C5222430A43C3F810250020F0BD7E
:10AFA0001F2887BF124A00F01F0404464FF0A0423A
:10AFB00002EB8402D2F8004724F00204C2F80047F2
:10AFC000BAE7082684F83060C3F820E035463446F6
:10AFD0001C4484F858009CE7644692E73C4690E79E
:10AFE00000251A6084F8305093E700BF0C2D002034
:10AFF00000030050702D002070B43A4D2E1883B01D
:10B0000096F93030072B20DD2B4493F858309B09FC
:10B01000032B45D0012B14BF4FF440314FF40031C6
:10B020001F284DD900F01F002F4B03EB8000D0F8F4
:10B03000002722F44032C0F80027D0F800370B4335
:10B04000C0F8003703B070BC7047DAB2072AF9D8ED
:10B05000980000F1804000F5C04003F14002D0F8B4
:10B060001045920092B244F0010402F18042C0F80F
:10B07000104502F5C04200200190019C106000299B
:10B08000E0D096F9302055F82220002ADAD00122AB
:10B09000164902FA03F3C1F8043303B070BC7047D9
:10B0A0001F2810D9104BD3F8103500F01F00C340F3
:10B0B00013F0010F0CBF4FF400314FF44031B3E7F0
:10B0C0004FF0A043B1E74FF0A0421346D2F810254D
:10B0D000C24012F0010F14BF4FF440314FF4003161
:10B0E000A3E700BF0C2D00200003005000600040CB
:10B0F0001F288ABF054B4FF0A04300F01F00D3F874
:10B10000103523FA00F000F00100704700030050F2
:10B110002DE9F047002388B0CDE90233CE4A166806
:10B12000012E00F03B821E46CC4B1A68012A00F02B
:10B130002782CB4B1A68012A00F01482C94B1A6887
:10B14000012A00F00182C84B1A68012A00F0EE8142
:10B15000C64B1A68012A00F0DB81C54B1A68012A28
:10B1600000F0C881C34B1A68012A00F0B581C24BB8
:10B170001A68012A0FD100221A601B6801934FF050
:10B18000A042019BD2F81025BC4B0292D3F8103597
:10B19000039346F0004616F0FF0F1AD0B84F002474
:10B1A0000125A30003F180432E4203F5C0434FEA7B
:10B1B00045050BD0D3F8100557F82420D3F8101507
:10B1C000C0F30520C1F3014102B190470134082CBE
:10B1D000E7D1002E02DB08B0BDE8F087A84CA74FEE
:10B1E0004FF0FF33CDE9063394F960300DF11008CC
:10B1F00000225D1CC8F8042004924FF0010600F004
:10B20000F4805FFA83FC2CF0C00008AB4FEAD00951
:10B2100003EB090E0CF007031EF8082C06FA03F3E3
:10B2200012EA030521D022184FEA9C1192F930202E
:10B2300054F82220002A00F02981032900F02881F7
:10B240001F2800F2F98005464FF0A04C0CEB850C4E
:10B250001EF8185CDCF800E71D40CEF3014E40F00C
:10B26000DF80BEF1030F00F0BF8194F96130581CFC
:10B2700032D0DBB223F0C00008AA4FEAD00E02EBB6
:10B280000E0C03F007011CF8082C06FA01F912EA6B
:10B29000090F21D02218990992F9302054F8222060
:10B2A000002A00F0FB80032900F0FB801F2800F239
:10B2B000E98003464FF0A04E0EEB83031CF818EC18
:10B2C000D3F800C71EEA090FCCF3014C40F0B88058
:10B2D000BCF1030F00F0AE8194F96230591C30D0FC
:10B2E000DBB223F0C00008AA4FEAD00E02EB0E0C2E
:10B2F00003F007011CF8082C06FA01F912EA090FFD
:10B300001FD02218990992F9302054F82220002ADF
:10B3100000F0D880032900F0D8801F287CD803468D
:10B320004FF0A04E0EEB83031CF818ECD3F800C7C7
:10B330001EEA090FCCF3014C64D1BCF1030F00F0FD
:10B34000658194F963305A1C34D0DBB223F0C0001D
:10B3500008AA4FEAD00E02EB0E0C03F007021CF80D
:10B36000081C06FA02F2114224D004EB00099909E4
:10B3700099F9309054F82990B9F1000F00F09880B5
:10B38000032900F098801F288BBFBE464FF0A04EC7
:10B3900003F01F0303460EEB83031CF818ECD3F8ED
:10B3A00000C71EEA020FCCF3014C20D1BCF1030F01
:10B3B00000F00181002D3FF40EAF4FF0A043029941
:10B3C000D3F81035D7F81025994203D1039991424B
:10B3D0003FF401AFDDE90401CDE9023294F96030B8
:10B3E0005D1CCDE906017FF40CAF00253DE7BCF103
:10B3F000020FDFD1032900F03481B9F1000F40F0D2
:10B40000F180D7E7BCF1020F9BD1032900F0268120
:10B41000002A96D0904794E703F01F03BE4681E7C9
:10B42000BEF1020FE1D1032900F021810025002A9D
:10B430003FF41BAF904718E70CF01F05BC4605E72B
:10B44000BCF1020F7FF448AF032900F00D81002A00
:10B450003FF442AF90473FE7006100400461004085
:10B46000086100400C610040106100401461004020
:10B47000186100401C6100407C61004000030050E6
:10B480000C2D002003F01F03BE4615E70329ACD1A5
:10B4900018F809501D4308F80950D1E603297FF434
:10B4A0001BAF18F80EA04AEA090A08F80EA0FDE63C
:10B4B00003297FF47FAF18F80EA04AEA020A08F8C1
:10B4C0000EA060E703297FF43CAF18F80EA04AEA0B
:10B4D000090A08F80EA020E7664AD2F804231706E6
:10B4E0007FF545AE00221A601B680093009B46F072
:10B4F00080063CE65F4AD2F8042352067FF532AE5E
:10B5000000221A601B680093009B46F0400629E663
:10B51000584AD2F8042391067FF51FAE00221A6024
:10B520001B680093009B46F0200616E6514AD2F8AD
:10B530000423D0067FF50CAE00221A601B6800932E
:10B54000009B46F0100603E64A4AD2F8042314078B
:10B550007FF5F9AD00221A601B680093009B46F04E
:10B560000806F0E5434AD2F8042355077FF5E6AD17
:10B5700000221A601B680093009B46F00406DDE57C
:10B580003C4AD2F8042397077FF5D3AD00221A6016
:10B590001B680093009B46F00206CAE53549D1F8C6
:10B5A000041311F0010104D0136013680093009B91
:10B5B000BAE50E46B8E503297FF41FAF4FF4003C0F
:10B5C000D3F8002722F44032C3F80027D3F800272D
:10B5D000013542EA0C02EDB2C3F80027B9F1000FC1
:10B5E0003FF4EBAEC847E5E603297FF420AF4FF404
:10B5F0000035DCF8003723F44033CCF80037DCF8B2
:10B6000000372B43CCF80037012510E703297FF4DE
:10B61000FFAE4FF4003ED3F800C72CF4403CC3F813
:10B6200000C7D3F800C701354EEA0C0CEDB2C3F8E1
:10B6300000C7EDE603297FF40AAF4FF4003ED3F8CC
:10B6400000C72CF4403CC3F800C7D3F800C701354D
:10B650004EEA0C0CEDB2C3F800C7F8E64FF4403EDA
:10B66000D9E74FF4403CABE74FF4403EE7E74FF4F7
:10B670004035BEE700600040014B1B68184700BF23
:10B68000782D0020104B984201D00020704730B533
:10B6900083B002A8002300F8013D0D46FCF796F99F
:10B6A0000A4B1C7934B19DF80700FCF7B5F911205D
:10B6B00003B030BD01229DF807001D601A71FCF730
:10B6C000ABF92046F4E700BF00200040782D0020B1
:10B6D000034B984203D1034B00221A601A71704742
:10B6E00000200040782D002030B56C4AD2F8043399
:10B6F00099058BB066D5D2F82431002B62D0002397
:10B70000C2F82431D2F8243103934FF40171644B11
:10B710000398C2F8081393F8291009B90121516060
:10B720005E4902228DF81820D1F88024C1F88024C7
:10B730009869D96809920022CDE90710C3E9062269
:10B74000D3E9001406A8A047544AD2F81C31BBB173
:10B75000534B186A5969884269D350480022C0F88F
:10B760001C21D0F81C010190019849B198688DF80E
:10B77000182008915A610790D3E9001206A8904753
:10B78000464AD2F84431DBB10021454BC2F844119E
:10B79000D2F8440193F829100090009809B10121D2
:10B7A00011609A6962B10022586AD9689A610122CF
:10B7B000CDE907108DF8182006A8D3E900129047AC
:10B7C0000BB030BD354AD2F804335B07BCD5D2F894
:10B7D0000831002BB8D0324B996900293CD00021A8
:10B7E000C2F80811D2F8081104910499D868596A6E
:10B7F000D2F8182542545A6A996901325A625A6A33
:10B800008A42A1D1DA691968002A2ED0D8685D6A07
:10B810001C699A61079000220120DC60DA615A629B
:10B820008DF8180008955B6806A898478CE793F890
:10B83000280000F0FF0400288FD1C2F81C41D2F884
:10B840001C11029102999C68186A196A205C0131E6
:10B850001962C2F81C0593E7C2F80811D2F8080172
:10B8600005900598D2F81825C9E793F8292012B950
:10B870000A4A01205060094A4FF40170C2F80803D7
:10B88000586ADA6808900024012007928DF81800A1
:10B890005A689C6106A8904756E700BF0020004008
:10B8A000802D00202DE9F041714F06792C2505FBF4
:10B8B000067582B095F82A30002B40F09A800D462C
:10B8C00004466C4900689046FFF7DCFE002840F013
:10B8D0008C802B68591C19D01F2B4FF001028ABF96
:10B8E00065494FF0A04103F01F0302FA03F3C1F8CA
:10B8F00008352B681F2B86BF03F01F035E4A4FF0ED
:10B90000A04203F5E073032142F823106B685A1C30
:10B910000BD01F2B86BF03F01F03574A4FF0A042E6
:10B9200003F5E073002142F823102368AA69C3F8E5
:10B930002425297D6B7D22680B43C2F86C35D5E93F
:10B9400000122368C3F81425C3F80C152B7D012BB6
:10B9500053D02C2303FB06F3FA18C2F804802A699B
:10B96000FA50B8F1000F2DD022682B7F434D0021F3
:10B97000C2F81C11D2F81C2100922268DDF800C028
:10B98000C2F84411D2F84411226801910199C2F819
:10B9900004532168090B4AB25B01002ADBB261DB68
:10B9A00002F1604202F5614282F800332368344DAF
:10B9B0001B0B5AB2520903F01F03012101FA03F3D2
:10B9C00045F822302C23246803FB0673002204254B
:10B9D0000121C4F8005583F82A10C3E9062283F830
:10B9E00029205A6102B0BDE8F081112002B0BDE803
:10B9F000F081082002B0BDE8F081AB68591C0BD083
:10BA00001F2B86BF03F01F031B4A4FF0A04203F514
:10BA1000E073002142F82310EB685A1C1BD01F2B47
:10BA20004FF001028ABF14494FF0A04103F01F03F9
:10BA300002FA03F3C1F80835EB681F2B88BF03F047
:10BA40001F0303F5E0738CBF0B4A4FF0A0420321A4
:10BA500042F82310EB682268A968C2F80835C2F8DA
:10BA6000101576E7074A01F00F010A4413769DE7A7
:10BA7000802D0020E9B60200000300508000020083
:10BA800000E100E0FCEC00E0F8B53A4F0479026810
:10BA90002C2303FB047300215B68C2F8001583B1FB
:10BAA0000368354AC3F808230368344D1B0B5AB2A8
:10BAB0005209203203F01F03012101FA03F345F874
:10BAC000223003684FF0FF3CD3F80C65D3F81455CF
:10BAD000D3F80825D3F81015C3F814C5C3F80CC55E
